{
  "contractName": "Crowdsale",
  "abi": [
    {
      "constant": true,
      "inputs": [
        {
          "name": "_time",
          "type": "uint256"
        }
      ],
      "name": "isIco",
      "outputs": [
        {
          "name": "",
          "type": "bool"
        }
      ],
      "payable": false,
      "stateMutability": "view",
      "type": "function"
    },
    {
      "constant": false,
      "inputs": [
        {
          "name": "_newSupport",
          "type": "address"
        }
      ],
      "name": "transferTechSupport",
      "outputs": [],
      "payable": false,
      "stateMutability": "nonpayable",
      "type": "function"
    },
    {
      "constant": true,
      "inputs": [
        {
          "name": "a",
          "type": "uint256"
        },
        {
          "name": "b",
          "type": "uint256"
        }
      ],
      "name": "pow",
      "outputs": [
        {
          "name": "",
          "type": "uint256"
        }
      ],
      "payable": false,
      "stateMutability": "pure",
      "type": "function"
    },
    {
      "constant": true,
      "inputs": [],
      "name": "preIcoStart",
      "outputs": [
        {
          "name": "",
          "type": "uint256"
        }
      ],
      "payable": false,
      "stateMutability": "view",
      "type": "function"
    },
    {
      "constant": true,
      "inputs": [],
      "name": "isIcoTrue",
      "outputs": [
        {
          "name": "",
          "type": "bool"
        }
      ],
      "payable": false,
      "stateMutability": "view",
      "type": "function"
    },
    {
      "constant": true,
      "inputs": [
        {
          "name": "_time",
          "type": "uint256"
        }
      ],
      "name": "isPreIco",
      "outputs": [
        {
          "name": "",
          "type": "bool"
        }
      ],
      "payable": false,
      "stateMutability": "view",
      "type": "function"
    },
    {
      "constant": true,
      "inputs": [],
      "name": "preIcoTokensSold",
      "outputs": [
        {
          "name": "",
          "type": "uint256"
        }
      ],
      "payable": false,
      "stateMutability": "view",
      "type": "function"
    },
    {
      "constant": false,
      "inputs": [
        {
          "name": "_value",
          "type": "uint256"
        }
      ],
      "name": "burnSomeTokens",
      "outputs": [],
      "payable": false,
      "stateMutability": "nonpayable",
      "type": "function"
    },
    {
      "constant": true,
      "inputs": [],
      "name": "tokensSold",
      "outputs": [
        {
          "name": "",
          "type": "uint256"
        }
      ],
      "payable": false,
      "stateMutability": "view",
      "type": "function"
    },
    {
      "constant": false,
      "inputs": [],
      "name": "refund",
      "outputs": [],
      "payable": false,
      "stateMutability": "nonpayable",
      "type": "function"
    },
    {
      "constant": true,
      "inputs": [],
      "name": "showContributors",
      "outputs": [
        {
          "components": [
            {
              "name": "_address",
              "type": "address"
            },
            {
              "name": "_value",
              "type": "uint256"
            },
            {
              "name": "_time",
              "type": "uint256"
            },
            {
              "name": "_processed",
              "type": "bool"
            }
          ],
          "name": "",
          "type": "tuple[]"
        }
      ],
      "payable": false,
      "stateMutability": "view",
      "type": "function"
    },
    {
      "constant": false,
      "inputs": [],
      "name": "acceptOwnership",
      "outputs": [],
      "payable": false,
      "stateMutability": "nonpayable",
      "type": "function"
    },
    {
      "constant": true,
      "inputs": [],
      "name": "preIcoFinish",
      "outputs": [
        {
          "name": "",
          "type": "uint256"
        }
      ],
      "payable": false,
      "stateMutability": "view",
      "type": "function"
    },
    {
      "constant": true,
      "inputs": [],
      "name": "icoStart",
      "outputs": [
        {
          "name": "",
          "type": "uint256"
        }
      ],
      "payable": false,
      "stateMutability": "view",
      "type": "function"
    },
    {
      "constant": false,
      "inputs": [
        {
          "name": "i",
          "type": "uint256"
        }
      ],
      "name": "confirmPayment",
      "outputs": [],
      "payable": false,
      "stateMutability": "nonpayable",
      "type": "function"
    },
    {
      "constant": true,
      "inputs": [],
      "name": "isTryedFinishCrowdsale",
      "outputs": [
        {
          "name": "",
          "type": "bool"
        }
      ],
      "payable": false,
      "stateMutability": "view",
      "type": "function"
    },
    {
      "constant": false,
      "inputs": [
        {
          "name": "i",
          "type": "uint256"
        }
      ],
      "name": "rejectPayment",
      "outputs": [],
      "payable": false,
      "stateMutability": "nonpayable",
      "type": "function"
    },
    {
      "constant": true,
      "inputs": [],
      "name": "owner",
      "outputs": [
        {
          "name": "",
          "type": "address"
        }
      ],
      "payable": false,
      "stateMutability": "view",
      "type": "function"
    },
    {
      "constant": false,
      "inputs": [],
      "name": "acceptSupport",
      "outputs": [],
      "payable": false,
      "stateMutability": "nonpayable",
      "type": "function"
    },
    {
      "constant": true,
      "inputs": [],
      "name": "preIcoMaxCap",
      "outputs": [
        {
          "name": "",
          "type": "uint256"
        }
      ],
      "payable": false,
      "stateMutability": "view",
      "type": "function"
    },
    {
      "constant": true,
      "inputs": [],
      "name": "icoTokensSold",
      "outputs": [
        {
          "name": "",
          "type": "uint256"
        }
      ],
      "payable": false,
      "stateMutability": "view",
      "type": "function"
    },
    {
      "constant": true,
      "inputs": [],
      "name": "isBurnActive",
      "outputs": [
        {
          "name": "",
          "type": "bool"
        }
      ],
      "payable": false,
      "stateMutability": "view",
      "type": "function"
    },
    {
      "constant": true,
      "inputs": [],
      "name": "icoFinish",
      "outputs": [
        {
          "name": "",
          "type": "uint256"
        }
      ],
      "payable": false,
      "stateMutability": "view",
      "type": "function"
    },
    {
      "constant": false,
      "inputs": [],
      "name": "finishCrowdsale",
      "outputs": [],
      "payable": false,
      "stateMutability": "nonpayable",
      "type": "function"
    },
    {
      "constant": true,
      "inputs": [],
      "name": "ethCollected",
      "outputs": [
        {
          "name": "",
          "type": "uint256"
        }
      ],
      "payable": false,
      "stateMutability": "view",
      "type": "function"
    },
    {
      "constant": false,
      "inputs": [
        {
          "name": "_address",
          "type": "address"
        },
        {
          "name": "_value",
          "type": "uint256"
        }
      ],
      "name": "sendTokensManually",
      "outputs": [],
      "payable": false,
      "stateMutability": "nonpayable",
      "type": "function"
    },
    {
      "constant": true,
      "inputs": [],
      "name": "techSupport",
      "outputs": [
        {
          "name": "",
          "type": "address"
        }
      ],
      "payable": false,
      "stateMutability": "view",
      "type": "function"
    },
    {
      "constant": true,
      "inputs": [],
      "name": "newOwner",
      "outputs": [
        {
          "name": "",
          "type": "address"
        }
      ],
      "payable": false,
      "stateMutability": "view",
      "type": "function"
    },
    {
      "constant": true,
      "inputs": [],
      "name": "newTechSupport",
      "outputs": [
        {
          "name": "",
          "type": "address"
        }
      ],
      "payable": false,
      "stateMutability": "view",
      "type": "function"
    },
    {
      "constant": true,
      "inputs": [
        {
          "name": "_value",
          "type": "uint256"
        }
      ],
      "name": "etherToTokens",
      "outputs": [
        {
          "name": "",
          "type": "uint256"
        }
      ],
      "payable": false,
      "stateMutability": "view",
      "type": "function"
    },
    {
      "constant": false,
      "inputs": [
        {
          "name": "_newOwner",
          "type": "address"
        }
      ],
      "name": "transferOwnership",
      "outputs": [],
      "payable": false,
      "stateMutability": "nonpayable",
      "type": "function"
    },
    {
      "constant": true,
      "inputs": [],
      "name": "token",
      "outputs": [
        {
          "name": "",
          "type": "address"
        }
      ],
      "payable": false,
      "stateMutability": "view",
      "type": "function"
    },
    {
      "inputs": [
        {
          "name": "_tokenAddress",
          "type": "address"
        },
        {
          "name": "_owner",
          "type": "address"
        }
      ],
      "payable": false,
      "stateMutability": "nonpayable",
      "type": "constructor"
    },
    {
      "payable": true,
      "stateMutability": "payable",
      "type": "fallback"
    },
    {
      "anonymous": false,
      "inputs": [
        {
          "indexed": false,
          "name": "id",
          "type": "uint256"
        },
        {
          "indexed": true,
          "name": "_address",
          "type": "address"
        },
        {
          "indexed": true,
          "name": "_value",
          "type": "uint256"
        },
        {
          "indexed": true,
          "name": "_time",
          "type": "uint256"
        }
      ],
      "name": "NewConributor",
      "type": "event"
    }
  ],
  "bytecode": "0x60606040526012600455662386f26fc100006006556000600755635ab3381460085562000044600a600454620003176401000000000262000bba176401000000009004565b630393870002600955652d79883d2000600a55635ab5db8c600b55635ae00b14600c556200008a600a600454620003176401000000000262000bba176401000000009004565b63017d784002600d55620000b6600a600454620003176401000000000262000bba176401000000009004565b6320c8558002600e556000600f556000601055600060115560006012556000601460006101000a81548160ff0219169083151502179055506000601460016101000a81548160ff02191690831515021790555034156200011557600080fd5b604051604080620025f483398101604052808051906020019091908051906020019091905050336000806101000a81548173ffffffffffffffffffffffffffffffffffffffff021916908373ffffffffffffffffffffffffffffffffffffffff16021790555081600560006101000a81548173ffffffffffffffffffffffffffffffffffffffff021916908373ffffffffffffffffffffffffffffffffffffffff160217905550806000806101000a81548173ffffffffffffffffffffffffffffffffffffffff021916908373ffffffffffffffffffffffffffffffffffffffff16021790555033600260006101000a81548173ffffffffffffffffffffffffffffffffffffffff021916908373ffffffffffffffffffffffffffffffffffffffff160217905550600560009054906101000a900473ffffffffffffffffffffffffffffffffffffffff1673ffffffffffffffffffffffffffffffffffffffff16636596cff3306040518263ffffffff167c0100000000000000000000000000000000000000000000000000000000028152600401808273ffffffffffffffffffffffffffffffffffffffff1673ffffffffffffffffffffffffffffffffffffffff168152602001915050600060405180830381600087803b1515620002fa57600080fd5b6102c65a03f115156200030c57600080fd5b505050505062000324565b600081830a905092915050565b6122c080620003346000396000f300606060405260043610610196576000357c0100000000000000000000000000000000000000000000000000000000900463ffffffff1680630a1e71de146101eb5780632184fe2c146102265780632e4c697f1461025f5780633d7419941461029f5780633fd0f727146102c8578063414b85e4146102f557806346e2a174146103305780634af5431114610359578063518ab2a81461037c578063590e1ae3146103a557806370b19232146103ba57806379ba50971461041f5780637d57a85c14610434578063827037db1461045d578063876ca09f146104865780638d627e91146104a95780638d920b02146104d65780638da5cb5b146104f9578063944126f41461054e578063a767d8be14610563578063aab725b31461058c578063b1a6676e146105b5578063b333ce0d146105e2578063b80cdcf61461060b578063bee2e13414610620578063d1729a4a14610649578063d459654a1461068b578063d4ee1d90146106e0578063e3d1359214610735578063ee3786101461078a578063f2fde38b146107c1578063fc0c546a146107fa575b600c544211156101a9576101a861084f565b5b6101b2426108ff565b806101c257506101c14261092d565b5b15156101cd57600080fd5b60065434101515156101de57600080fd5b6101e933344261095b565b005b34156101f657600080fd5b61020c60048080359060200190919050506108ff565b604051808215151515815260200191505060405180910390f35b341561023157600080fd5b61025d600480803573ffffffffffffffffffffffffffffffffffffffff16906020019091905050610ac3565b005b341561026a57600080fd5b6102896004808035906020019091908035906020019091905050610bba565b6040518082815260200191505060405180910390f35b34156102aa57600080fd5b6102b2610bc7565b6040518082815260200191505060405180910390f35b34156102d357600080fd5b6102db610bcd565b604051808215151515815260200191505060405180910390f35b341561030057600080fd5b610316600480803590602001909190505061092d565b604051808215151515815260200191505060405180910390f35b341561033b57600080fd5b610343610bed565b6040518082815260200191505060405180910390f35b341561036457600080fd5b61037a6004808035906020019091905050610bf3565b005b341561038757600080fd5b61038f610d10565b6040518082815260200191505060405180910390f35b34156103b057600080fd5b6103b8610d16565b005b34156103c557600080fd5b6103cd610ed6565b60405180806020018281038252838181518152602001915080516000925b8184101561040e57828490602001906020020151815260200192600101926103eb565b925050509250505060405180910390f35b341561042a57600080fd5b610432610fc1565b005b341561043f57600080fd5b61044761107c565b6040518082815260200191505060405180910390f35b341561046857600080fd5b610470611082565b6040518082815260200191505060405180910390f35b341561049157600080fd5b6104a76004808035906020019091905050611088565b005b34156104b457600080fd5b6104bc6111ef565b604051808215151515815260200191505060405180910390f35b34156104e157600080fd5b6104f76004808035906020019091905050611202565b005b341561050457600080fd5b61050c611373565b604051808273ffffffffffffffffffffffffffffffffffffffff1673ffffffffffffffffffffffffffffffffffffffff16815260200191505060405180910390f35b341561055957600080fd5b610561611398565b005b341561056e57600080fd5b610576611454565b6040518082815260200191505060405180910390f35b341561059757600080fd5b61059f61145a565b6040518082815260200191505060405180910390f35b34156105c057600080fd5b6105c8611460565b604051808215151515815260200191505060405180910390f35b34156105ed57600080fd5b6105f5611473565b6040518082815260200191505060405180910390f35b341561061657600080fd5b61061e61084f565b005b341561062b57600080fd5b610633611479565b6040518082815260200191505060405180910390f35b341561065457600080fd5b610689600480803573ffffffffffffffffffffffffffffffffffffffff1690602001909190803590602001909190505061147f565b005b341561069657600080fd5b61069e611626565b604051808273ffffffffffffffffffffffffffffffffffffffff1673ffffffffffffffffffffffffffffffffffffffff16815260200191505060405180910390f35b34156106eb57600080fd5b6106f361164c565b604051808273ffffffffffffffffffffffffffffffffffffffff1673ffffffffffffffffffffffffffffffffffffffff16815260200191505060405180910390f35b341561074057600080fd5b610748611672565b604051808273ffffffffffffffffffffffffffffffffffffffff1673ffffffffffffffffffffffffffffffffffffffff16815260200191505060405180910390f35b341561079557600080fd5b6107ab6004808035906020019091905050611698565b6040518082815260200191505060405180910390f35b34156107cc57600080fd5b6107f8600480803573ffffffffffffffffffffffffffffffffffffffff1690602001909190505061181f565b005b341561080557600080fd5b61080d6118fa565b604051808273ffffffffffffffffffffffffffffffffffffffff1673ffffffffffffffffffffffffffffffffffffffff16815260200191505060405180910390f35b600c544211151561085f57600080fd5b601460009054906101000a900460ff1615156108e157610882600a600454610bba565b63245bdc80026011541015156108b2576001601460016101000a81548160ff0219169083151502179055506108c1565b62093a80600c5401600c819055505b6001601460006101000a81548160ff0219169083151502179055506108fd565b6001601460016101000a81548160ff0219169083151502179055505b565b600081600b54111580156109155750600c548211155b156109235760019050610928565b600090505b919050565b6000816007541115801561094357506008548211155b156109515760019050610956565b600090505b919050565b6109636121a3565b83816000019073ffffffffffffffffffffffffffffffffffffffff16908173ffffffffffffffffffffffffffffffffffffffff168152505082816020018181525050818160400181815250506000816060019015159081151581525050601580548060010182816109d491906121e4565b9160005260206000209060040201600083909190915060008201518160000160006101000a81548173ffffffffffffffffffffffffffffffffffffffff021916908373ffffffffffffffffffffffffffffffffffffffff160217905550602082015181600101556040820151816002015560608201518160030160006101000a81548160ff02191690831515021790555050505081838573ffffffffffffffffffffffffffffffffffffffff167fff8149292bcb7756a7346f7c876ad9a4e04fad0198b3dfbe7854302b6698a3a06015805490506040518082815260200191505060405180910390a450505050565b6000809054906101000a900473ffffffffffffffffffffffffffffffffffffffff1673ffffffffffffffffffffffffffffffffffffffff163373ffffffffffffffffffffffffffffffffffffffff161480610b6b5750600260009054906101000a900473ffffffffffffffffffffffffffffffffffffffff1673ffffffffffffffffffffffffffffffffffffffff163373ffffffffffffffffffffffffffffffffffffffff16145b1515610b7657600080fd5b80600360006101000a81548173ffffffffffffffffffffffffffffffffffffffff021916908373ffffffffffffffffffffffffffffffffffffffff16021790555050565b600081830a905092915050565b60075481565b6000600d54601154101515610be55760019050610bea565b600090505b90565b600f5481565b6000809054906101000a900473ffffffffffffffffffffffffffffffffffffffff1673ffffffffffffffffffffffffffffffffffffffff163373ffffffffffffffffffffffffffffffffffffffff16141515610c4e57600080fd5b601460019054906101000a900460ff161515610c6957600080fd5b600560009054906101000a900473ffffffffffffffffffffffffffffffffffffffff1673ffffffffffffffffffffffffffffffffffffffff16634af54311826040518263ffffffff167c010000000000000000000000000000000000000000000000000000000002815260040180828152602001915050600060405180830381600087803b1515610cf957600080fd5b6102c65a03f11515610d0a57600080fd5b50505050565b60115481565b610d1e610bcd565b151515610d2a57600080fd5b426203f480600c540111151515610d4057600080fd5b600560009054906101000a900473ffffffffffffffffffffffffffffffffffffffff1673ffffffffffffffffffffffffffffffffffffffff1663b237f7d4336040518263ffffffff167c0100000000000000000000000000000000000000000000000000000000028152600401808273ffffffffffffffffffffffffffffffffffffffff1673ffffffffffffffffffffffffffffffffffffffff168152602001915050600060405180830381600087803b1515610dfc57600080fd5b6102c65a03f11515610e0d57600080fd5b5050503373ffffffffffffffffffffffffffffffffffffffff166108fc601360003373ffffffffffffffffffffffffffffffffffffffff1673ffffffffffffffffffffffffffffffffffffffff168152602001908152602001600020549081150290604051600060405180830381858888f193505050501515610e8f57600080fd5b6000601360003373ffffffffffffffffffffffffffffffffffffffff1673ffffffffffffffffffffffffffffffffffffffff16815260200190815260200160002081905550565b610ede612216565b6015805480602002602001604051908101604052809291908181526020016000905b82821015610fb85783829060005260206000209060040201608060405190810160405290816000820160009054906101000a900473ffffffffffffffffffffffffffffffffffffffff1673ffffffffffffffffffffffffffffffffffffffff1673ffffffffffffffffffffffffffffffffffffffff16815260200160018201548152602001600282015481526020016003820160009054906101000a900460ff16151515158152505081526020019060010190610f00565b50505050905090565b600160009054906101000a900473ffffffffffffffffffffffffffffffffffffffff1673ffffffffffffffffffffffffffffffffffffffff163373ffffffffffffffffffffffffffffffffffffffff16141561107a57600160009054906101000a900473ffffffffffffffffffffffffffffffffffffffff166000806101000a81548173ffffffffffffffffffffffffffffffffffffffff021916908373ffffffffffffffffffffffffffffffffffffffff1602179055505b565b60085481565b600b5481565b6000809054906101000a900473ffffffffffffffffffffffffffffffffffffffff1673ffffffffffffffffffffffffffffffffffffffff163373ffffffffffffffffffffffffffffffffffffffff161415156110e357600080fd5b6015818154811015156110f257fe5b906000526020600020906004020160030160009054906101000a900460ff1615151561111d57600080fd5b6111a860158281548110151561112f57fe5b906000526020600020906004020160000160009054906101000a900473ffffffffffffffffffffffffffffffffffffffff1660158381548110151561117057fe5b90600052602060002090600402016001015460158481548110151561119157fe5b906000526020600020906004020160020154611920565b15156111b357600080fd5b60016015828154811015156111c457fe5b906000526020600020906004020160030160006101000a81548160ff02191690831515021790555050565b601460009054906101000a900460ff1681565b6000809054906101000a900473ffffffffffffffffffffffffffffffffffffffff1673ffffffffffffffffffffffffffffffffffffffff163373ffffffffffffffffffffffffffffffffffffffff1614151561125d57600080fd5b60158181548110151561126c57fe5b906000526020600020906004020160030160009054906101000a900460ff1615151561129757600080fd5b6015818154811015156112a657fe5b906000526020600020906004020160000160009054906101000a900473ffffffffffffffffffffffffffffffffffffffff1673ffffffffffffffffffffffffffffffffffffffff166108fc60158381548110151561130057fe5b9060005260206000209060040201600101549081150290604051600060405180830381858888f19350505050151561133757600080fd5b600160158281548110151561134857fe5b906000526020600020906004020160030160006101000a81548160ff02191690831515021790555050565b6000809054906101000a900473ffffffffffffffffffffffffffffffffffffffff1681565b600360009054906101000a900473ffffffffffffffffffffffffffffffffffffffff1673ffffffffffffffffffffffffffffffffffffffff163373ffffffffffffffffffffffffffffffffffffffff16141561145257600360009054906101000a900473ffffffffffffffffffffffffffffffffffffffff16600260006101000a81548173ffffffffffffffffffffffffffffffffffffffff021916908373ffffffffffffffffffffffffffffffffffffffff1602179055505b565b60095481565b60105481565b601460019054906101000a900460ff1681565b600c5481565b60125481565b600260009054906101000a900473ffffffffffffffffffffffffffffffffffffffff1673ffffffffffffffffffffffffffffffffffffffff163373ffffffffffffffffffffffffffffffffffffffff161415156114db57600080fd5b600560009054906101000a900473ffffffffffffffffffffffffffffffffffffffff1673ffffffffffffffffffffffffffffffffffffffff16639c1f020a83836040518363ffffffff167c0100000000000000000000000000000000000000000000000000000000028152600401808373ffffffffffffffffffffffffffffffffffffffff1673ffffffffffffffffffffffffffffffffffffffff16815260200182815260200192505050600060405180830381600087803b151561159f57600080fd5b6102c65a03f115156115b057600080fd5b5050506115bc4261092d565b156115dd576115d681600f5461210090919063ffffffff16565b600f819055505b6115e6426108ff565b15611607576116008160105461210090919063ffffffff16565b6010819055505b61161c8160115461210090919063ffffffff16565b6011819055505050565b600260009054906101000a900473ffffffffffffffffffffffffffffffffffffffff1681565b600160009054906101000a900473ffffffffffffffffffffffffffffffffffffffff1681565b600360009054906101000a900473ffffffffffffffffffffffffffffffffffffffff1681565b6000806116ce600a546116c06116b1600a600454610bba565b8661211e90919063ffffffff16565b61216f90919063ffffffff16565b90506007544210806116e557506116e44261092d565b5b156117135761170c6064602883028115156116fc57fe5b048261210090919063ffffffff16565b9150611819565b600854421180156117255750600b5442105b156117535761174c6064601e830281151561173c57fe5b048261210090919063ffffffff16565b9150611819565b61175c426108ff565b15611814574262093a80600b540111151561179a576117936064601e830281151561178357fe5b048261210090919063ffffffff16565b9150611819565b4262127500600b54011115156117d3576117cc6064601483028115156117bc57fe5b048261210090919063ffffffff16565b9150611819565b42621baf80600b540111151561180c576118056064600a83028115156117f557fe5b048261210090919063ffffffff16565b9150611819565b809150611819565b600091505b50919050565b6000809054906101000a900473ffffffffffffffffffffffffffffffffffffffff1673ffffffffffffffffffffffffffffffffffffffff163373ffffffffffffffffffffffffffffffffffffffff1614151561187a57600080fd5b600073ffffffffffffffffffffffffffffffffffffffff168173ffffffffffffffffffffffffffffffffffffffff16141515156118b657600080fd5b80600160006101000a81548173ffffffffffffffffffffffffffffffffffffffff021916908373ffffffffffffffffffffffffffffffffffffffff16021790555050565b600560009054906101000a900473ffffffffffffffffffffffffffffffffffffffff1681565b6000806000806000600560009054906101000a900473ffffffffffffffffffffffffffffffffffffffff1673ffffffffffffffffffffffffffffffffffffffff166365e83ae16000604051602001526040518163ffffffff167c0100000000000000000000000000000000000000000000000000000000028152600401602060405180830381600087803b15156119b657600080fd5b6102c65a03f115156119c757600080fd5b505050604051805190501115156119dd57600080fd5b600092506119ea8561092d565b15611a8957600f54600954111515611a0157600080fd5b611a0a86611698565b9250611a2183600f5461210090919063ffffffff16565b600f819055506000809054906101000a900473ffffffffffffffffffffffffffffffffffffffff1673ffffffffffffffffffffffffffffffffffffffff166108fc879081150290604051600060405180830381858888f193505050501515611a8857600080fd5b5b611a92856108ff565b15611f7457611aa086611698565b9250600560009054906101000a900473ffffffffffffffffffffffffffffffffffffffff1673ffffffffffffffffffffffffffffffffffffffff166365e83ae16000604051602001526040518163ffffffff167c0100000000000000000000000000000000000000000000000000000000028152600401602060405180830381600087803b1515611b3057600080fd5b6102c65a03f11515611b4157600080fd5b50505060405180519050611b606011548561210090919063ffffffff16565b1115611ec357600560009054906101000a900473ffffffffffffffffffffffffffffffffffffffff1673ffffffffffffffffffffffffffffffffffffffff166365e83ae16000604051602001526040518163ffffffff167c0100000000000000000000000000000000000000000000000000000000028152600401602060405180830381600087803b1515611bf457600080fd5b6102c65a03f11515611c0557600080fd5b505050604051805190509250611c44611c21600a600454610bba565b611c36600a548661211e90919063ffffffff16565b61216f90919063ffffffff16565b9150611c59828761218a90919063ffffffff16565b90508673ffffffffffffffffffffffffffffffffffffffff166108fc829081150290604051600060405180830381858888f193505050501515611c9b57600080fd5b611cb08360105461210090919063ffffffff16565b601081905550611ccb8360115461210090919063ffffffff16565b601181905550600560009054906101000a900473ffffffffffffffffffffffffffffffffffffffff1673ffffffffffffffffffffffffffffffffffffffff16639c1f020a88856040518363ffffffff167c0100000000000000000000000000000000000000000000000000000000028152600401808373ffffffffffffffffffffffffffffffffffffffff1673ffffffffffffffffffffffffffffffffffffffff16815260200182815260200192505050600060405180830381600087803b1515611d9557600080fd5b6102c65a03f11515611da657600080fd5b505050611dbe8260125461210090919063ffffffff16565b601281905550611e1682601360008a73ffffffffffffffffffffffffffffffffffffffff1673ffffffffffffffffffffffffffffffffffffffff1681526020019081526020016000205461210090919063ffffffff16565b601360008973ffffffffffffffffffffffffffffffffffffffff1673ffffffffffffffffffffffffffffffffffffffff168152602001908152602001600020819055506000809054906101000a900473ffffffffffffffffffffffffffffffffffffffff1673ffffffffffffffffffffffffffffffffffffffff166108fc879081150290604051600060405180830381858888f193505050501515611eba57600080fd5b600193506120f6565b611f1586601360008a73ffffffffffffffffffffffffffffffffffffffff1673ffffffffffffffffffffffffffffffffffffffff1681526020019081526020016000205461210090919063ffffffff16565b601360008973ffffffffffffffffffffffffffffffffffffffff1673ffffffffffffffffffffffffffffffffffffffff16815260200190815260200160002081905550611f6d8360105461210090919063ffffffff16565b6010819055505b611f898360115461210090919063ffffffff16565b601181905550600560009054906101000a900473ffffffffffffffffffffffffffffffffffffffff1673ffffffffffffffffffffffffffffffffffffffff16639c1f020a88856040518363ffffffff167c0100000000000000000000000000000000000000000000000000000000028152600401808373ffffffffffffffffffffffffffffffffffffffff1673ffffffffffffffffffffffffffffffffffffffff16815260200182815260200192505050600060405180830381600087803b151561205357600080fd5b6102c65a03f1151561206457600080fd5b50505061206f610bcd565b156120d6576000809054906101000a900473ffffffffffffffffffffffffffffffffffffffff1673ffffffffffffffffffffffffffffffffffffffff166108fc879081150290604051600060405180830381858888f1935050505015156120d557600080fd5b5b6120eb8660125461210090919063ffffffff16565b601281905550600193505b5050509392505050565b600080828401905083811015151561211457fe5b8091505092915050565b60008060008414806121305750600083145b1561213e5760009150612168565b8284029050600084148061215c575082848281151561215957fe5b04145b151561216457fe5b8091505b5092915050565b600080828481151561217d57fe5b0490508091505092915050565b600082821115151561219857fe5b818303905092915050565b608060405190810160405280600073ffffffffffffffffffffffffffffffffffffffff16815260200160008152602001600081526020016000151581525090565b81548183558181151161221157600402816004028360005260206000209182019101612210919061222a565b5b505050565b602060405190810160405280600081525090565b61229191905b8082111561228d57600080820160006101000a81549073ffffffffffffffffffffffffffffffffffffffff0219169055600182016000905560028201600090556003820160006101000a81549060ff021916905550600401612230565b5090565b905600a165627a7a72305820950fce21f92d07efce3a14ff13d6436ddb1181cef364086755230905c1d7acc20029",
  "source": "library SafeMath { //standart library for uint\n  function mul(uint256 a, uint256 b) internal pure returns (uint256) {\n    if (a == 0 || b == 0){\n        return 0;\n    }\n    uint256 c = a * b;\n    assert(a == 0 || c / a == b);\n    return c;\n  }\n\n  function div(uint256 a, uint256 b) internal pure returns (uint256) {\n    // assert(b > 0); // Solidity automatically throws when dividing by 0\n    uint256 c = a / b;\n    // assert(a == b * c + a % b); // There is no case in which this doesn't hold\n    return c;\n  }\n\n  function sub(uint256 a, uint256 b) internal pure returns (uint256) {\n    assert(b <= a);\n    return a - b;\n  }\n\n  function add(uint256 a, uint256 b) internal pure returns (uint256) {\n    uint256 c = a + b;\n    assert(c >= a);\n    return c;\n  }\n}\n\n//standart contract to identify owner\ncontract Ownable {\n\n  address public owner;\n\n  address public newOwner;\n\n  address public techSupport;\n\n  address public newTechSupport;\n\n  modifier onlyOwner() {\n    require(msg.sender == owner);\n    _;\n  }\n\n  modifier onlyTechSupport() {\n    require(msg.sender == techSupport);\n    _;\n  }\n\n  function Ownable() public {\n    owner = msg.sender;\n  }\n\n  function transferOwnership(address _newOwner) public onlyOwner {\n    require(_newOwner != address(0));\n    newOwner = _newOwner;\n  }\n\n  function acceptOwnership() public {\n    if (msg.sender == newOwner) {\n      owner = newOwner;\n    }\n  }\n\n  function transferTechSupport (address _newSupport) public{\n    require (msg.sender == owner || msg.sender == techSupport);\n    newTechSupport = _newSupport;\n  }\n\n  function acceptSupport() public{\n    if(msg.sender == newTechSupport){\n      techSupport = newTechSupport;\n    }\n  }\n\n}\n\n//Abstract Token contract\ncontract CQTToken{\n  function setCrowdsaleContract (address) public{}\n  function sendCrowdsaleTokens(address, uint256)  public {}\n  function burnTokens(address) {}\n  function getCrowdsaleTokens() public view returns(uint) {}\n  function burnSomeTokens(uint _value) public{}\n}\n\n//Crowdsale contract\ncontract Crowdsale is Ownable{\n\n  using SafeMath for uint;\n  function pow(uint256 a, uint256 b) public pure returns (uint256){ //power function\n   return (a**b);\n  }\n\n  uint decimals = 18;\n  // Token contract address\n  CQTToken public token;\n\n  // Constructor\n  function Crowdsale(address _tokenAddress, address _owner) public{\n    token = CQTToken(_tokenAddress);\n    owner = _owner;\n    techSupport = msg.sender;\n    //test parameter\n    // techSupport = 0x8C0F5211A006bB28D4c694dC76632901664230f9;\n    token.setCrowdsaleContract(this);\n  }\n\n  // Buy constants\n  uint minDeposit = 10000000000000000;\n\n  //Canadian time - (-5 hours to UTC)\n  // preIco constants\n  uint public preIcoStart = 0; //21.02.2018 1519189260\n  uint public preIcoFinish = 1521694740; //21.03.2018\n\n  uint public preIcoMaxCap = 60000000*pow(10,decimals); //60000000\n  uint tokenPrice = 50000000000000;\n\n\n  // Ico constants\n  uint public icoStart = 1521867660; //24.03.2018\n  uint public icoFinish = 1524632340; //24.04.2018\n\n  uint icoMinCap = 25000000*pow(10,decimals);\n  uint icoMaxCap = 550000000*pow(10,decimals);\n\n  //check is now preICO\n  function isPreIco(uint _time) public view returns (bool){\n    if((preIcoStart <= _time) && (_time <= preIcoFinish)){\n      return true;\n    }\n    return false;\n  }\n\n  //check is now ICO\n  function isIco(uint _time) public view returns (bool){\n    if((icoStart <= _time) && (_time <= icoFinish)){\n      return true;\n    }\n    return false;\n  }\n\n  //Crowdsale variables\n  uint public preIcoTokensSold = 0;\n  uint public icoTokensSold = 0;\n  uint public tokensSold = 0;\n  uint public ethCollected = 0;\n\n  //investors ether balance contains here\n  mapping (address => uint) investorBalances;\n\n  //fallback function (when investor send ether to contract)\n  function() public payable{\n    if (now > icoFinish){\n      finishCrowdsale();\n    }\n    require(isIco(now) || isPreIco(now));\n    require(msg.value >= minDeposit);\n\n    addContributor(msg.sender,msg.value,now);\n\n    // require(buy(msg.sender,msg.value,now)); //redirect to func buy\n  }\n\n  //ICO cabinets functions\n  // function sendEtherManually(address _address, uint _value) public onlyTechSupport{\n  //   require(buy(_address,_value,now,true));\n  // }\n\n  function sendTokensManually(address _address, uint _value) public onlyTechSupport{\n    token.sendCrowdsaleTokens(_address, _value);\n    if(isPreIco(now)){\n      preIcoTokensSold = preIcoTokensSold.add(_value);\n    }\n    if(isIco(now)){\n      icoTokensSold = icoTokensSold.add(_value);\n    }\n    tokensSold = tokensSold.add(_value);\n  }\n  \n  //function buy Tokens\n  function buy(address _address, uint _value, uint _time) internal returns (bool){\n    require(token.getCrowdsaleTokens() > 0);\n\n    uint tokensForSend = 0;\n\n    if (isPreIco(_time)){\n      require(preIcoMaxCap > preIcoTokensSold);\n      tokensForSend = etherToTokens(_value);\n      preIcoTokensSold = preIcoTokensSold.add(tokensForSend);\n      owner.transfer(_value);\n    }\n\n    if (isIco(_time)){\n      // Token contract will automatically throws if Crowdsale balance < tokensForSend\n      // require (icoMaxCap > icoTokensSold);\n      tokensForSend = etherToTokens(_value);\n\n      //If user cant buy all tokens we need to give ether back for him \n      if(tokensForSend.add(tokensSold) > token.getCrowdsaleTokens()){\n        tokensForSend = token.getCrowdsaleTokens();\n        uint ethToTake = tokensForSend.mul(tokenPrice).div(pow(10,decimals));\n\n        uint etherSendBack = _value.sub(ethToTake);\n        _address.transfer(etherSendBack);\n        icoTokensSold = icoTokensSold.add(tokensForSend);\n\n        tokensSold = tokensSold.add(tokensForSend);\n        token.sendCrowdsaleTokens(_address, tokensForSend);\n\n        ethCollected = ethCollected.add(ethToTake);\n        investorBalances[_address] = investorBalances[_address].add(ethToTake);\n        owner.transfer(_value);\n\n        return true;\n      }\n\n      investorBalances[_address] = investorBalances[_address].add(_value);\n      icoTokensSold = icoTokensSold.add(tokensForSend);\n    }\n\n    tokensSold = tokensSold.add(tokensForSend);\n    token.sendCrowdsaleTokens(_address, tokensForSend);\n\n    if (isIcoTrue()){\n      owner.transfer(_value);\n    }\n\n    ethCollected = ethCollected.add(_value);\n    return true;\n  }\n\n  //convert ether to tokens\n  function etherToTokens(uint _value) public view returns(uint) {\n    uint res = _value.mul(pow(10,decimals)).div(tokenPrice);\n\n    if (now < preIcoStart || isPreIco(now)){\n      return res.add(res*40/100);\n    }\n\n    // if (isPreIco(now)){\n    //   return res.add(res*40/100);\n    // }\n\n    if (now > preIcoFinish && now < icoStart){\n      return res.add(res*30/100);\n    }\n\n    if (isIco(now)){\n      if(icoStart + 7 days <= now){\n        return res.add(res*30/100);\n      }\n      if(icoStart + 14 days <= now){\n        return res.add(res*20/100);\n      }\n      if(icoStart + 21 days <= now){\n        return res.add(res*10/100);\n      }\n    return res;\n    }\n\n    return 0;\n  }\n\n  //function check is ICO complete (minCap exceeded)\n  function isIcoTrue() public view returns (bool){\n    if (tokensSold >= icoMinCap){\n      return true;\n    }\n  return false;\n  }\n\n  //Contract can change ICO finish date up to 7 days, but only one time\n  bool public isTryedFinishCrowdsale = false;\n  bool public isBurnActive = false;\n\n  function finishCrowdsale () public {\n    require (now > icoFinish);\n\n    if(!isTryedFinishCrowdsale){\n      if(tokensSold >= 610000000*pow(10,decimals)){\n        isBurnActive = true;  \n      }else{\n        icoFinish = icoFinish + 7 days;\n      }\n      isTryedFinishCrowdsale = true;\n    }else{\n      isBurnActive = true;\n    }\n  }\n  \n  //Owner can burn some tokens in Token Contract\n  function burnSomeTokens (uint _value) public onlyOwner{\n    require(isBurnActive);\n    token.burnSomeTokens(_value);\n  }\n\n  //if ICO failed and now = ICO finished date +3 days then investor can withdrow his ether\n  function refund() public{\n    require (!isIcoTrue());\n    require (icoFinish + 3 days <= now);\n\n    token.burnTokens(msg.sender);\n    msg.sender.transfer(investorBalances[msg.sender]);\n    investorBalances[msg.sender] = 0;\n  }\n\n  struct mas{\n   address _address;\n   uint _value;\n   uint _time;\n   bool _processed;\n  }\n \n  mas[] private contributors;\n \n  function showContributors() public view returns (mas[]){\n    return contributors;\n  }\n\n  event NewConributor(uint id, address indexed _address, uint indexed _value, uint indexed _time);\n  \n\n  function addContributor(address _address, uint _value, uint _time) internal {\n    mas memory newConriburor;\n    newConriburor._address = _address;\n    newConriburor._value = _value;\n    newConriburor._time = _time;\n    newConriburor._processed = false;\n\n    contributors.push(newConriburor);\n    \n    NewConributor(contributors.length, _address, _value, _time);\n  }\n\n  function confirmPayment(uint i) public onlyOwner {\n    require (!contributors[i]._processed);\n\n    require(buy(contributors[i]._address,contributors[i]._value,contributors[i]._time));\n    contributors[i]._processed = true;\n\n  }\n\n  function rejectPayment(uint i) public onlyOwner {\n    require (!contributors[i]._processed);   \n    contributors[i]._address.transfer(contributors[i]._value);\n    contributors[i]._processed = true;\n  } \n}",
  "sourcePath": "/home/romuch/Desktop/truffleChecqitNew/contracts/ChecqitCrowdsale.sol",
  "compiler": {
    "name": "solc",
    "version": "0.4.19+commit.c4cbbb05.Emscripten.clang"
  },
  "schemaVersion": "1.0.1",
  "updatedAt": "2018-03-05T12:13:25.684Z"
}