{
  "contractName": "Ownable",
  "abi": [
    {
      "constant": false,
      "inputs": [
        {
          "name": "_newSupport",
          "type": "address"
        }
      ],
      "name": "transferTechSupport",
      "outputs": [],
      "payable": false,
      "stateMutability": "nonpayable",
      "type": "function"
    },
    {
      "constant": false,
      "inputs": [],
      "name": "acceptOwnership",
      "outputs": [],
      "payable": false,
      "stateMutability": "nonpayable",
      "type": "function"
    },
    {
      "constant": true,
      "inputs": [],
      "name": "owner",
      "outputs": [
        {
          "name": "",
          "type": "address"
        }
      ],
      "payable": false,
      "stateMutability": "view",
      "type": "function"
    },
    {
      "constant": false,
      "inputs": [],
      "name": "acceptSupport",
      "outputs": [],
      "payable": false,
      "stateMutability": "nonpayable",
      "type": "function"
    },
    {
      "constant": true,
      "inputs": [],
      "name": "techSupport",
      "outputs": [
        {
          "name": "",
          "type": "address"
        }
      ],
      "payable": false,
      "stateMutability": "view",
      "type": "function"
    },
    {
      "constant": true,
      "inputs": [],
      "name": "newOwner",
      "outputs": [
        {
          "name": "",
          "type": "address"
        }
      ],
      "payable": false,
      "stateMutability": "view",
      "type": "function"
    },
    {
      "constant": true,
      "inputs": [],
      "name": "newTechSupport",
      "outputs": [
        {
          "name": "",
          "type": "address"
        }
      ],
      "payable": false,
      "stateMutability": "view",
      "type": "function"
    },
    {
      "constant": false,
      "inputs": [
        {
          "name": "_newOwner",
          "type": "address"
        }
      ],
      "name": "transferOwnership",
      "outputs": [],
      "payable": false,
      "stateMutability": "nonpayable",
      "type": "function"
    },
    {
      "inputs": [],
      "payable": false,
      "stateMutability": "nonpayable",
      "type": "constructor"
    }
  ],
  "bytecode": "0x6060604052341561000f57600080fd5b336000806101000a81548173ffffffffffffffffffffffffffffffffffffffff021916908373ffffffffffffffffffffffffffffffffffffffff16021790555061068f8061005e6000396000f30060606040526004361061008e576000357c0100000000000000000000000000000000000000000000000000000000900463ffffffff1680632184fe2c1461009357806379ba5097146100cc5780638da5cb5b146100e1578063944126f414610136578063d459654a1461014b578063d4ee1d90146101a0578063e3d13592146101f5578063f2fde38b1461024a575b600080fd5b341561009e57600080fd5b6100ca600480803573ffffffffffffffffffffffffffffffffffffffff16906020019091905050610283565b005b34156100d757600080fd5b6100df61037a565b005b34156100ec57600080fd5b6100f4610435565b604051808273ffffffffffffffffffffffffffffffffffffffff1673ffffffffffffffffffffffffffffffffffffffff16815260200191505060405180910390f35b341561014157600080fd5b61014961045a565b005b341561015657600080fd5b61015e610516565b604051808273ffffffffffffffffffffffffffffffffffffffff1673ffffffffffffffffffffffffffffffffffffffff16815260200191505060405180910390f35b34156101ab57600080fd5b6101b361053c565b604051808273ffffffffffffffffffffffffffffffffffffffff1673ffffffffffffffffffffffffffffffffffffffff16815260200191505060405180910390f35b341561020057600080fd5b610208610562565b604051808273ffffffffffffffffffffffffffffffffffffffff1673ffffffffffffffffffffffffffffffffffffffff16815260200191505060405180910390f35b341561025557600080fd5b610281600480803573ffffffffffffffffffffffffffffffffffffffff16906020019091905050610588565b005b6000809054906101000a900473ffffffffffffffffffffffffffffffffffffffff1673ffffffffffffffffffffffffffffffffffffffff163373ffffffffffffffffffffffffffffffffffffffff16148061032b5750600260009054906101000a900473ffffffffffffffffffffffffffffffffffffffff1673ffffffffffffffffffffffffffffffffffffffff163373ffffffffffffffffffffffffffffffffffffffff16145b151561033657600080fd5b80600360006101000a81548173ffffffffffffffffffffffffffffffffffffffff021916908373ffffffffffffffffffffffffffffffffffffffff16021790555050565b600160009054906101000a900473ffffffffffffffffffffffffffffffffffffffff1673ffffffffffffffffffffffffffffffffffffffff163373ffffffffffffffffffffffffffffffffffffffff16141561043357600160009054906101000a900473ffffffffffffffffffffffffffffffffffffffff166000806101000a81548173ffffffffffffffffffffffffffffffffffffffff021916908373ffffffffffffffffffffffffffffffffffffffff1602179055505b565b6000809054906101000a900473ffffffffffffffffffffffffffffffffffffffff1681565b600360009054906101000a900473ffffffffffffffffffffffffffffffffffffffff1673ffffffffffffffffffffffffffffffffffffffff163373ffffffffffffffffffffffffffffffffffffffff16141561051457600360009054906101000a900473ffffffffffffffffffffffffffffffffffffffff16600260006101000a81548173ffffffffffffffffffffffffffffffffffffffff021916908373ffffffffffffffffffffffffffffffffffffffff1602179055505b565b600260009054906101000a900473ffffffffffffffffffffffffffffffffffffffff1681565b600160009054906101000a900473ffffffffffffffffffffffffffffffffffffffff1681565b600360009054906101000a900473ffffffffffffffffffffffffffffffffffffffff1681565b6000809054906101000a900473ffffffffffffffffffffffffffffffffffffffff1673ffffffffffffffffffffffffffffffffffffffff163373ffffffffffffffffffffffffffffffffffffffff161415156105e357600080fd5b600073ffffffffffffffffffffffffffffffffffffffff168173ffffffffffffffffffffffffffffffffffffffff161415151561061f57600080fd5b80600160006101000a81548173ffffffffffffffffffffffffffffffffffffffff021916908373ffffffffffffffffffffffffffffffffffffffff160217905550505600a165627a7a72305820dc16bebd1f6d0279d05b3718a79fba31e975e7b50a79264abe04ca87dda6a5250029",
  "source": "library SafeMath { //standart library for uint\n  function mul(uint256 a, uint256 b) internal pure returns (uint256) {\n    if (a == 0 || b == 0){\n        return 0;\n    }\n    uint256 c = a * b;\n    assert(c / a == b);\n    return c;\n  }\n\n  function div(uint256 a, uint256 b) internal pure returns (uint256) {\n    // assert(b > 0); // Solidity automatically throws when dividing by 0\n    uint256 c = a / b;\n    // assert(a == b * c + a % b); // There is no case in which this doesn't hold\n    return c;\n  }\n\n  function sub(uint256 a, uint256 b) internal pure returns (uint256) {\n    assert(b <= a);\n    return a - b;\n  }\n\n  function add(uint256 a, uint256 b) internal pure returns (uint256) {\n    uint256 c = a + b;\n    assert(c >= a);\n    return c;\n  }\n}\n\ncontract Ownable { //standart contract to identify owner\n\n  address public owner;\n\n  address public newOwner;\n\n  address public techSupport;\n\n  address public newTechSupport;\n\n  modifier onlyOwner() {\n    require(msg.sender == owner);\n    _;\n  }\n\n  modifier onlyTechSupport() {\n    require(msg.sender == techSupport);\n    _;\n  }\n\n  function Ownable() public {\n    owner = msg.sender;\n  }\n\n  function transferOwnership(address _newOwner) public onlyOwner {\n    require(_newOwner != address(0));\n    newOwner = _newOwner;\n  }\n\n  function acceptOwnership() public {\n    if (msg.sender == newOwner) {\n      owner = newOwner;\n    }\n  }\n\n  function transferTechSupport (address _newSupport) public{\n    require (msg.sender == owner || msg.sender == techSupport);\n    newTechSupport = _newSupport;\n  }\n\n  function acceptSupport() public{\n    if(msg.sender == newTechSupport){\n      techSupport = newTechSupport;\n    }\n  }\n\n}\n\ncontract CQTToken is Ownable { //ERC - 20 token contract\n  using SafeMath for uint;\n  // Triggered when tokens are transferred.\n  event Transfer(address indexed _from, address indexed _to, uint256 _value);\n\n  // Triggered whenever approve(address _spender, uint256 _value) is called.\n  event Approval(address indexed _owner, address indexed _spender, uint256 _value);\n\n  string public constant symbol = \"CQT\";\n  string public constant name = \"Checqit\";\n  uint8 public constant decimals = 18;\n  uint256 _totalSupply = 1000000000*pow(10,decimals);\n\n  // Owner of this contract\n  address public owner;\n\n  // Balances for each account\n  mapping(address => uint256) balances;\n\n  // Owner of account approves the transfer of an amount to another account\n  mapping(address => mapping (address => uint256)) allowed;\n\n  function pow(uint256 a, uint256 b) internal pure returns (uint256){ //power function\n    return (a**b);\n  }\n\n  function totalSupply() public constant returns (uint256) { //standart ERC-20 function\n    return _totalSupply;\n  }\n\n  function balanceOf(address _address) public constant returns (uint256 balance) {//standart ERC-20 function\n    return balances[_address];\n  }\n\n\n  //standart ERC-20 function\n  function transfer(address _to, uint256 _amount) public returns (bool success) {\n    require(this != _to);\n    balances[msg.sender] = balances[msg.sender].sub(_amount);\n    balances[_to] = balances[_to].add(_amount);\n    Transfer(msg.sender,_to,_amount);\n    return true;\n  }\n  \n  address public crowdsaleContract;\n\n  //connect to crowdsaleContract, can be use once\n  function setCrowdsaleContract (address _address) public{\n    require (crowdsaleContract == address(0));\n    crowdsaleContract = _address;\n  }\n\n  //standart ERC-20 function\n  function transferFrom( \n    address _from,\n    address _to,\n    uint256 _amount\n    )public returns (bool success) {\n      require(this != _to);\n\n      if (balances[_from] >= _amount\n       && allowed[_from][msg.sender] >= _amount\n       && _amount > 0\n       && balances[_to] + _amount > balances[_to]) {\n       balances[_from] -= _amount;\n       allowed[_from][msg.sender] -= _amount;\n       balances[_to] += _amount;\n       Transfer(_from, _to, _amount);\n    return true;\n    } else {\n    return false;\n    }\n  }\n  //standart ERC-20 function\n  function approve(address _spender, uint256 _amount)public returns (bool success) { \n    allowed[msg.sender][_spender] = _amount;\n    Approval(msg.sender, _spender, _amount);\n    return true;\n  }\n\n  //standart ERC-20 function\n  function allowance(address _owner, address _spender)public constant returns (uint256 remaining) {\n    return allowed[_owner][_spender];\n  }\n\n  //Constructor\n  function CQTToken(address _owner) public {\n    techSupport = msg.sender;\n    //testParameter\n    // techSupport = 0x8C0F5211A006bB28D4c694dC76632901664230f9;\n\n    owner = _owner;\n    \n    balances[this] = _totalSupply;\n\n    teamBalanceMap[_owner] = true;\n    futureExpanstionMap[_owner] = true;\n    bountyProgramMap[_owner] = true;\n  }\n\n  //make investor balance = 0\n  function burnTokens(address _address) public{\n    require(msg.sender == crowdsaleContract);\n    Transfer(_address,0,balances[_address]);\n    balances[_address] = 0;\n  }\n\n  //burn some tokens in this contract\n  function burnSomeTokens(uint _value) public{\n    require (msg.sender == crowdsaleContract);\n    balances[this] = balances[this].sub(_value);\n    Transfer(this,0,_value);\n  }\n\n  // only crowdsaleContract can use this balance \n  uint private crowdsaleTokens = (uint)(610000000).mul(pow(10,decimals));\n\n  function getCrowdsaleTokens() public view returns(uint) {\n    return crowdsaleTokens;\n  }\n  \n  // balances for owner's team\n  uint public teamBalance = (uint)(250000000).mul(pow(10,decimals));\n  uint public futureExpanstion = (uint)(130000000).mul(pow(10,decimals));\n  uint public bountyProgram = (uint)(10000000).mul(pow(10,decimals));\n\n  mapping (address => bool) public teamBalanceMap;\n  mapping (address => bool) public futureExpanstionMap;\n  mapping (address => bool) public bountyProgramMap;\n\n  function addInTeamBalanceMap (address _address) public onlyOwner {\n    require(!teamBalanceMap[_address]);\n    teamBalanceMap[_address] = true;\n  }\n\n  function removeFromTeamBalanceMap (address _address) public onlyOwner {\n    require(teamBalanceMap[_address]);\n    teamBalanceMap[_address] = false;\n  }\n  \n  function addInFutureExpanstionMap (address _address) public onlyOwner {\n    require(!futureExpanstionMap[_address]);\n    futureExpanstionMap[_address] = true;\n  }\n  \n  function removeFromFutureExpanstionMap (address _address) public onlyOwner {\n    require(futureExpanstionMap[_address]);\n    futureExpanstionMap[_address] = false;\n  }\n\n  function addInBountyProgramMap (address _address) public onlyOwner {\n    require(!bountyProgramMap[_address]);\n    bountyProgramMap[_address] = true;\n  }\n  \n  function removeFromBountyProgramMap (address _address) public onlyOwner {\n    require(bountyProgramMap[_address]);\n    bountyProgramMap[_address] = false;\n  }\n  \n  function sendTeamBalance (address _address, uint _value) public {\n    require(teamBalanceMap[msg.sender]);\n    teamBalance = teamBalance.sub(_value);\n    balances[this] = balances[this].sub(_value);\n    balances[_address] = balances[_address].add(_value);\n    Transfer(this,_address,_value);\n  }\n\n  function sendFutureExpanstionBalance (address _address, uint _value) public {\n    require(futureExpanstionMap[msg.sender]);\n    futureExpanstion = futureExpanstion.sub(_value);\n    balances[this] = balances[this].sub(_value);\n    balances[_address] = balances[_address].add(_value);\n    Transfer(this,_address,_value);\n  }  \n\n  function sendBountyProgramBalance (address _address, uint _value) public {\n    require(bountyProgramMap[msg.sender]);\n    bountyProgram = bountyProgram.sub(_value);\n    balances[this] = balances[this].sub(_value);\n    balances[_address] = balances[_address].add(_value);\n    Transfer(this,_address,_value);\n  }        \n\n  //crowdsale function\n  function sendCrowdsaleTokens(address _address, uint256 _value)  public { \n    require (msg.sender == crowdsaleContract);\n    crowdsaleTokens = crowdsaleTokens.sub(_value);\n    balances[this] = balances[this].sub(_value);\n    balances[_address] = balances[_address].add(_value);\n    Transfer(this, _address, _value);\n  } \n}",
  "sourcePath": "/home/romuch/Desktop/truffleChecqitNew/contracts/ChecqitToken.sol",
  "compiler": {
    "name": "solc",
    "version": "0.4.19+commit.c4cbbb05.Emscripten.clang"
  },
  "schemaVersion": "1.0.1",
  "updatedAt": "2018-03-05T12:13:25.688Z"
}